:020000040800F2
:1000000000000520394F0008A1430008A94300085B
:10001000B1430008B9430008C143000800000000D4
:10002000000000000000000000000000C9430008BC
:10003000D743000800000000E5430008F343000830
:10004000894F0008894F0008894F0008894F000830
:10005000894F0008894F0008894F0008894F000820
:10006000894F0008894F0008894F0008894F000810
:10007000894F0008894F000801440008894F000893
:1000800015440008894F000829440008894F0008DA
:100090003D440008894F0008894F0008894F000837
:1000A000894F000851440008894F0008894F000813
:1000B000894F0008894F0008894F0008894F0008C0
:1000C000894F0008894F0008894F0008894F0008B0
:1000D000894F0008894F00086544000879440008EA
:1000E0008D440008894F0008894F0008894F000897
:1000F000894F0008894F0008894F0008894F000880
:10010000894F0008894F00089D440008894F000866
:10011000894F0008894F0008B1440008C544000811
:10012000D9440008894F0008894F0008894F00080A
:10013000894F0008894F0008894F0008894F00083F
:10014000894F0008894F0008894F0008894F00082F
:10015000894F0008894F0008894F0008894F00081F
:10016000894F0008894F0008894F0008894F00080F
:10017000894F0008894F0008894F000800000000DF
:10018000894F0008894F0008894F0008894F0008EF
:10019000ED440008894F0008894F0008894F000886
:1001A000894F0008894F0008894F0008894F0008CF
:1001B000894F0008894F0008894F0008894F0008BF
:0801C000894F0008894F000877
:1001D00010B5054C237833B9044B13B10448AFF381
:1001E00000800123237010BDB80200200000000031
:1001F000BC09010808B5034B1BB103490348AFF321
:10020000008008BD00000000BC020020BC090108FD
:1002100001F0FF01102A2BDB10F0070F08D010F8B7
:10022000013B013A8B422DD010F0070F42B3F6D1BB
:10023000F0B441EA012141EA014122F007047FF0D4
:1002400000070023F0E80256083C85EA010586EA2B
:10025000010685FA47F5A3FA87F586FA47F6A5FA67
:1002600087F68EB9EED1F0BC01F0FF0102F0070273
:1002700032B110F8013B013A83EA010313B1F8D11E
:100280000020704701387047002D06BF35460338FF
:10029000073815F0010F07D1013015F4807F02BF38
:1002A000013015F4C03F0130F0BC0138704700BF89
:1002B000034613F8012B002AFBD1181A01387047A6
:1002C00081F0004102E000BF83F0004330B54FEA07
:1002D00041044FEA430594EA050F08BF90EA020F74
:1002E0001FBF54EA000C55EA020C7FEA645C7FEA07
:1002F000655C00F0E2804FEA5454D4EB5555B8BF2A
:100300006D420CDD2C4480EA020281EA030382EA9A
:10031000000083EA010180EA020281EA0303362D2C
:1003200088BF30BD11F0004F4FEA01314FF4801CFF
:100330004CEA113102D0404261EB410113F0004F11
:100340004FEA03334CEA133302D0524263EB4303C8
:1003500094EA050F00F0A780A4F10104D5F1200E66
:100360000DDB02FA0EFC22FA05F2801841F10001C1
:1003700003FA0EF2801843FA05F359410EE0A5F195
:1003800020050EF1200E012A03FA0EFC28BF4CF0C6
:10039000020C43FA05F3C01851EBE37101F000457C
:1003A00007D54FF0000EDCF1000C7EEB00006EEB89
:1003B0000101B1F5801F1BD3B1F5001F0CD3490813
:1003C0005FEA30004FEA3C0C04F101044FEA44526A
:1003D00012F5800F80F09A80BCF1004F08BF5FEAF1
:1003E000500C50F1000041EB045141EA050130BDD1
:1003F0005FEA4C0C404141EB0101013C28BFB1F5E3
:10040000801FE9D291F0000F04BF01460020B1FA2D
:1004100081F308BF2033A3F10B03B3F120020CDA00
:100420000C3208DD02F1140CC2F10C0201FA0CF0DE
:1004300021FA02F10CE002F11402D8BFC2F1200C43
:1004400001FA02F120FA0CFCDCBF41EA0C019040F9
:10045000E41AA2BF01EB0451294330BD6FEA040442
:100460001F3C1CDA0C340EDC04F11404C4F120022D
:1004700020FA04F001FA02F340EA030021FA04F33F
:1004800045EA030130BDC4F10C04C4F1200220FA96
:1004900002F001FA04F340EA0300294630BD21FAD4
:1004A00004F0294630BD94F0000F83F4801306BF9A
:1004B00081F480110134013D4EE77FEA645C18BF8E
:1004C0007FEA655C29D094EA050F08BF90EA020F25
:1004D00005D054EA000C04BF1946104630BD91EA1D
:1004E000030F1EBF0021002030BD5FEA545C05D120
:1004F0004000494128BF41F0004130BD14F580045F
:100500003CBF01F5801130BD01F0004545F0FE41D2
:1005100041F470014FF0000030BD7FEA645C1ABF07
:10052000194610467FEA655C1CBF0B46024650EA3E
:10053000013406BF52EA033591EA030F41F400216A
:1005400030BD00BF90F0000F04BF0021704730B5F0
:100550004FF4806404F132044FF000054FF00001C5
:1005600050E700BF90F0000F04BF0021704730B586
:100570004FF4806404F1320410F0004548BF40425B
:100580004FF000013EE700BF42004FEAE2014FEAB0
:1005900031014FEA02701FBF12F07F4393F07F4F8B
:1005A00081F06051704732F07F4208BF704793F08E
:1005B0007F4F04BF41F40021704730B54FF46074A1
:1005C00001F0004521F000411CE700BF50EA0102A4
:1005D00008BF704730B54FF000050AE050EA01024D
:1005E00008BF704730B511F0004502D5404261EBBD
:1005F00041014FF4806404F132045FEA915C3FF4FE
:10060000D8AE4FF003025FEADC0C18BF03325FEA9A
:10061000DC0C18BF033202EBDC02C2F1200300FA4B
:1006200003FC20FA02F001FA03FE40EA0E0021FA70
:1006300002F11444BDE600BF70B54FF0FF0C4CF45E
:10064000E06C1CEA11541DBF1CEA135594EA0C0F10
:1006500095EA0C0F00F0DEF82C4481EA030621EA4B
:100660004C5123EA4C5350EA013518BF52EA033586
:1006700041F4801143F4801338D0A0FB02CE4FF038
:100680000005E1FB02E506F00042E0FB03E54FF068
:100690000006E1FB03569CF0000F18BF4EF0010E60
:1006A000A4F1FF04B6F5007F64F5407404D25FEA5C
:1006B0004E0E6D4146EB060642EAC62141EA55510F
:1006C0004FEAC52040EA5E504FEACE2EB4F1FD0C51
:1006D00088BFBCF5E06F1ED8BEF1004F08BF5FEACF
:1006E000500E50F1000041EB045170BD06F0004681
:1006F00046EA010140EA020081EA0301B4EB5C042E
:10070000C2BFD4EB0C0541EA045170BD41F4801125
:100710004FF0000E013C00F3AB8014F1360FDEBF4A
:10072000002001F0004170BDC4F10004203C35DA26
:100730000C341BDC04F11404C4F1200500FA05F3A9
:1007400020FA04F001FA05F240EA020001F000424A
:1007500021F0004110EBD37021FA04F642EB0601C0
:100760005EEA430E08BF20EAD37070BDC4F10C04EA
:10077000C4F1200500FA04F320FA05F001FA04F2AE
:1007800040EA020001F0004110EBD37041F100019A
:100790005EEA430E08BF20EAD37070BDC4F12005A5
:1007A00000FA05F24EEA020E20FA04F301FA05F20D
:1007B00043EA020321FA04F001F0004121FA04F2B5
:1007C00020EA020000EBD3705EEA430E08BF20EA85
:1007D000D37070BD94F0000F0FD101F000464000BF
:1007E00041EB010111F4801F08BF013CF7D041EA41
:1007F000060195F0000F18BF704703F00046520045
:1008000043EB030313F4801F08BF013DF7D043EA15
:100810000603704794EA0C0F0CEA135518BF95EACB
:100820000C0F0CD050EA410618BF52EA4306D1D152
:1008300081EA030101F000414FF0000070BD50EA71
:10084000410606BF1046194652EA430619D094EAFB
:100850000C0F02D150EA013613D195EA0C0F05D1E5
:1008600052EA03361CBF104619460AD181EA030139
:1008700001F0004141F0FE4141F470014FF00000F1
:1008800070BD41F0FE4141F4780170BD70B54FF08C
:10089000FF0C4CF4E06C1CEA11541DBF1CEA13550C
:1008A00094EA0C0F95EA0C0F00F0A7F8A4EB0504EE
:1008B00081EA030E52EA03354FEA013100F08880E5
:1008C0004FEA03334FF0805545EA131343EA1263AE
:1008D0004FEA022245EA111545EA10654FEA002663
:1008E0000EF000419D4208BF964244F1FD0404F51C
:1008F000407402D25B084FEA3202B61A65EB030578
:100900005B084FEA32024FF480104FF4002CB6EB34
:10091000020E75EB030E22BFB61A754640EA0C00B4
:100920005B084FEA3202B6EB020E75EB030E22BFF4
:10093000B61A754640EA5C005B084FEA3202B6EB35
:10094000020E75EB030E22BFB61A754640EA9C00F4
:100950005B084FEA3202B6EB020E75EB030E22BFC4
:10096000B61A754640EADC0055EA060E18D04FEA82
:10097000051545EA16754FEA06164FEAC30343EA22
:1009800052734FEAC2025FEA1C1CC0D111F4801FEF
:100990000BD141EA00014FF000004FF0004CB6E7E8
:1009A00011F4801F04BF01430020B4F1FD0C88BF87
:1009B000BCF5E06F3FF6AFAEB5EB030C04BFB6EB92
:1009C000020C5FEA500C50F1000041EB045170BD85
:1009D0000EF0004E4EEA113114EB5C04C2BFD4EBB2
:1009E0000C0541EA045170BD41F480114FF0000E36
:1009F000013C90E645EA060E8DE60CEA135594EAB2
:100A00000C0F08BF95EA0C0F3FF43BAF94EA0C0FB4
:100A10000AD150EA01347FF434AF95EA0C0F7FF429
:100A200025AF104619462CE795EA0C0F06D152EA7D
:100A300003353FF4FDAE1046194622E750EA410661
:100A400018BF52EA43067FF4C5AE50EA41047FF472
:100A50000DAF52EA43057FF4EBAE12E74FF0FF3CD7
:100A600006E000BF4FF0010C02E000BF4FF0010CA8
:100A70004DF804CD4FEA410C7FEA6C5C4FEA430C21
:100A800018BF7FEA6C5C1BD001B050EA410C0CBF70
:100A900052EA430C91EA030F02BF90EA020F0020D2
:100AA000704710F1000F91EA030F58BF994208BF39
:100AB00090422CBFD8176FEAE37040F001007047F6
:100AC0004FEA410C7FEA6C5C02D150EA013C07D14D
:100AD0004FEA430C7FEA6C5CD6D152EA033CD3D098
:100AE0005DF8040B704700BF8446104662468C4692
:100AF0001946634600E000BF01B5FFF7B7FF0028C5
:100B000048BF10F1000F01BD4DF808EDFFF7F4FFED
:100B10000CBF012000205DF808FB00BF4DF808ED78
:100B2000FFF7EAFF34BF012000205DF808FB00BF9B
:100B30004DF808EDFFF7E0FF94BF012000205DF8BD
:100B400008FB00BF4DF808EDFFF7CEFF94BF012072
:100B500000205DF808FB00BF4DF808EDFFF7C4FF6B
:100B600034BF012000205DF808FB00BF4FEA410CB4
:100B70007FEA6C5C02D150EA013C0AD14FEA430C97
:100B80007FEA6C5C02D152EA033C02D14FF00000D4
:100B900070474FF0010070474FEA410212F5001212
:100BA00015D211D56FF47873B3EB625212D94FEAB4
:100BB000C12343F0004343EA505311F0004F23FA9E
:100BC00002F018BF404270474FF00000704750EAF3
:100BD000013005D111F0004008BF6FF000407047B0
:100BE0004FF00000704700BF4A0011D212F500120A
:100BF00011D20DD56FF47873B3EB62520ED44FEA75
:100C0000C12343F0004343EA505323FA02F07047F4
:100C10004FF00000704750EA013002D14FF0FF3032
:100C200070474FF0000070474FEA4102B2F1E043D5
:100C300024BFB3F5001CDCF1FE5C0DD901F0004CC3
:100C40004FEAC0024CEA5070B2F1004F40EB830013
:100C500008BF20F00100704711F0804F21D113F13F
:100C60003872BCBF01F00040704741F480114FEA78
:100C70005252C2F11802C2F1200C10FA0CF320FA01
:100C800002F018BF40F001004FEAC1234FEAD3231E
:100C900003FA0CFC40EA0C0023FA02F34FEA430388
:100CA000CCE77FEA625307D150EA01331EBF4FF011
:100CB000FE4040F44000704701F0004040F0FE402C
:100CC00040F40000704700BF53B94AB9002908BF7B
:100CD00000281CBF4FF0FF314FF0FF3000F0A0B9EB
:100CE000ADF1080C6DE904CE00F03CF8DDF804E04D
:100CF000DDE9022304B0704738B500220023044622
:100D00000D46FFF70BFF28B920462946BDE83840BD
:100D100000F00AB8204605F1004100F005F8404215
:100D200061EB410138BD00BFD0B50C4B0022064637
:100D30000F46FFF781FCFFF757FF0446FFF702FC61
:100D4000074B0022FFF778FC02460B463046394637
:100D5000FFF7BAFAFFF748FF2146D0BD0000F03D8B
:100D60000000F0412DE9F047089D0C46002B4ED1C4
:100D700094468C458646B2FA82F262D94AB1C2F1F3
:100D80002003914020FA03F30CFA02FC194300FA05
:100D900002FE4FEA1C471FFA8CF6B1FBF7F44FEA4C
:100DA0001E4307FB141143EA014304FB06F1994279
:100DB0000AD91CEB030304F1FF3080F01281994241
:100DC00040F20F81023C6344591A1FFA8EF3B1FBC3
:100DD000F7F007FB101143EA014300FB06F69E42C1
:100DE0000AD91CEB030300F1FF3180F0FC809E4226
:100DF00040F2F980634402389B1B40EA0440002122
:100E00001DB1D3400022C5E90032BDE8F0878B4216
:100E100005D90DB1C5E9000100210846F5E7B3FA8F
:100E200083F1002946D1A34202D39042C0F0F08062
:100E3000861A64EB03030120002DE6D0C5E90063A8
:100E4000E3E7002A40F09080A1EB0C044FEA1C4835
:100E50001FFA8CF70121B4FBF8F64FEA1E4308FB9A
:100E6000164443EA044307FB06F0984208D91CEBFA
:100E7000030306F1FF3402D2984200F2CD802646E9
:100E80001C1A1FFA8EF3B4FBF8F008FB104443EA77
:100E9000044300FB07F79F4208D91CEB030300F152
:100EA000FF3402D29F4200F2B0802046DB1B40EAB2
:100EB0000640A5E7C1F120068B4022FA06F71F4342
:100EC00020FA06FC04FA01F343EA0C03F44000FAAA
:100ED00001F8380C4FEA1349B4FBF0FE1FFA87FC07
:100EE00000FB1E4449EA04440EFB0CF9A14502FA3A
:100EF00001F20AD93C190EF1FF3A80F08480A14535
:100F000040F28180AEF1020E3C44A4EB09041FFACA
:100F100083F9B4FBF0F300FB134449EA044403FBF8
:100F20000CFCA44507D93C1903F1FF3067D2A44556
:100F300065D9023B3C4443EA0E40A0FB0293A4EB7C
:100F40000C049C42CE469C4651D34ED055B1B8EBD2
:100F50000E0364EB0C0404FA06F6CB401E43CC40AF
:100F6000C5E90064002150E7C2F1200320FA03F133
:100F70000CFA02FC24FA03F394400C434FEA1C4899
:100F800000FA02FE1FFA8CF7B3FBF8F008FB1031F1
:100F9000230C43EA014300FB07F1994208D91CEBFB
:100FA000030300F1FF362CD299422AD90238634458
:100FB0005B1AA4B2B3FBF8F108FB113344EA034413
:100FC00001FB07F3A34208D91CEB040401F1FF362F
:100FD00013D2A34211D902396444E41A41EA004110
:100FE00039E70446F0E6084606E7C845AED2B9EB55
:100FF000020E63EB070C0138A8E73146EDE7034624
:1010000099E73046D4E7D6467FE7634402384DE798
:101010000646234608460FE7023E634430E700BF1A
:10102000704700BF80B584B000AF3B4600221A6015
:101030005A609A60DA60214B214A1A601F4B4FF4C4
:1010400080325A601D4B00229A601C4B01221A61AB
:101050001A4B01229A61194B002283F82020174B6A
:101060000022DA62154B174A9A62144B0022DA60AA
:10107000124B0122DA61114B012283F830200F4B11
:1010800001225A610D4804F001F80346002B01D0FB
:1010900002F0E2FC00233B6001237B600723BB607E
:1010A0003B461946054804F063F90346002B01D07E
:1010B00002F0D2FC00BF1037BD4680BDD402002034
:1010C000002001400100000F80B58AB000AF7860B9
:1010D00007F1140300221A605A609A60DA601A61FC
:1010E0007B681B68314A93425BD1314B5B6C304A61
:1010F00043F4807353642E4B5B6C03F480733B6149
:101100003B692B4B1B6B2A4A43F001031363284BAB
:101110001B6B03F00103FB60FB6801237B6103236E
:10112000BB610023FB6107F114031946214805F058
:10113000FDFE214B214A1A601F4B00225A601E4BB4
:1011400000229A601C4B0022DA601B4B4FF4806235
:101150001A61194B4FF400625A61174B4FF4005259
:101160009A61154B4FF48072DA61134B00221A62B8
:10117000114B00225A62104805F0CEFA0346002BAC
:1011800001D002F069FC7B680B4A9A630A4A7B68CB
:10119000936300220021122005F087FA122005F047
:1011A000A0FA00BF2837BD4680BD00BF0020014027
:1011B00000380240000002401C030020106402407E
:1011C00080B500AF174B184A1A60164B12225A60AE
:1011D000144B00229A60134B0022DA60114B4FF43B
:1011E00080321A610F4B00225A610E4B00221A7690
:1011F0000C4B00225A760B4B00229A76094B0022A8
:10120000DA76084B00221A77064B00225A770548F7
:1012100004F008FB0346002B01D002F01DFC00BFC8
:1012200080BD00BF7C0300200064004080B58AB010
:1012300000AF786007F1140300221A605A609A60C8
:10124000DA601A617B681B681B4A93422FD11B4BE3
:101250001B6C1A4A43F000731364184B1B6C03F0A9
:1012600000733B613B69154B1B6B144A43F0080349
:101270001363124B1B6B03F00803FB60FB68032333
:101280007B610223BB610023FB6103233B620923D3
:101290007B6207F114031946094805F047FE002256
:1012A0000021142005F001FA142005F01AFA00BFFD
:1012B0002837BD4680BD00BF0064004000380240B2
:1012C000000C024080B582B000AF1A4B1B6B194A6C
:1012D00043F480031363174B1B6B03F480037B60A1
:1012E0007B68144B1B6B134A43F400131363114BBD
:1012F0001B6B03F400133B603B68002200210E20AF
:1013000005F0D3F90E2005F0ECF9002200211020A1
:1013100005F0CBF9102005F0E4F900220021382077
:1013200005F0C3F9382005F0DCF900BF0837BD46E9
:1013300080BD00BF0038024080B58EB000AF07F11D
:10134000240300221A605A609A60DA601A61A64B80
:101350001B6BA54A43F004031363A34B1B6B03F001
:1013600004033B623B6AA04B1B6B9F4A43F0200384
:1013700013639D4B1B6B03F02003FB61FB699A4BCE
:101380001B6B994A43F080031363974B1B6B03F06D
:101390008003BB61BB69944B1B6B934A43F0010311
:1013A0001363914B1B6B03F001037B617B698E4BD5
:1013B0001B6B8D4A43F0020313638B4B1B6B03F0D3
:1013C00002033B613B69884B1B6B874A43F0100368
:1013D0001363854B1B6B03F01003FB60FB68824BB0
:1013E0001B6B814A43F0080313637F4B1B6B03F0B5
:1013F0000803BB60BB687C4B1B6B7B4A43F040031C
:101400001363794B1B6B03F040037B607B68002206
:1014100044F28101754805F035FF00224FF4005178
:10142000734805F02FFF00224FF40071714805F05A
:1014300029FF00224FF440416F4805F023FF0022AE
:1014400040216E4805F01EFF4FF400537B624FF4BD
:101450008813BB620023FB6207F124031946684826
:1014600005F064FD32237B620223BB620023FB6232
:1014700003233B630B237B6307F124031946604876
:1014800005F054FD86237B620223BB620023FB62CE
:1014900003233B630B237B6307F12403194659485D
:1014A00005F044FD44F281037B620123BB6200230B
:1014B000FB6200233B6307F1240319464B4805F008
:1014C00035FD4FF400537B620123BB620023FB62B6
:1014D00000233B6307F124031946454805F026FD28
:1014E0004FF400737B620123BB620023FB62002385
:1014F0003B6307F1240319463E4805F017FD4FF4FE
:1015000000537B620223BB620023FB6203233B6325
:101510000B237B6307F124031946344805F006FDCD
:101520004FF440437B620123BB620023FB62002334
:101530003B6307F1240319462F4805F0F7FC4023CD
:101540007B620123BB620023FB6200233B6307F144
:1015500024031946294805F0E9FC80237B62002317
:10156000BB620023FB6207F124031946234805F000
:10157000DDFC4FF4E8537B620223BB620023FB6275
:1015800003233B630A237B6307F1240319461D48A9
:1015900005F0CCFC4FF400737B620023BB62002398
:1015A000FB6207F124031946164805F0BFFC4FF40F
:1015B00020537B620223BB620023FB6203233B6355
:1015C0000B237B6307F1240319460C4805F0AEFC9E
:1015D00000220021282005F068F8282005F081F875
:1015E00000BF3837BD4680BD0038024000040240CD
:1015F0000014024000100240000C0240001802409B
:10160000000802400000024080B500AF1B4B1C4A9E
:101610001A601A4B1B4A5A60184B00229A60174BEB
:101620000122DA60154B00221A61144B00225A6124
:10163000124B00229A61114B0022DA610F4B0022FB
:101640001A620E4805F06AFE0346002B01D002F034
:1016500003FA0021094806F0EDFB0346002B01D0F8
:1016600002F0FAF90021054806F02FFC0346002B92
:1016700001D002F0F1F900BF80BD00BFA40300203B
:1016800000580040D28C800080B5AAB000AF7860CE
:1016900007F1940300221A605A609A60DA601A61B6
:1016A00007F110038422002118460BF0AAFA7B6888
:1016B0001B68214A93423BD14FF400433B61002316
:1016C000BB6707F11003184607F026F90346002B05
:1016D00001D002F0C1F9194B1B6B184A43F02003EB
:1016E0001363164B1B6B03F02003FB60FB680323A3
:1016F000C7F894301223C7F898300023C7F89C30FD
:101700000323C7F8A0300423C7F8A43007F19403DB
:1017100019460B4805F00AFC084B1B6C074A43F4BA
:1017200080031364054B1B6C03F48003BB60BB6830
:1017300000BFA837BD4680BD0058004000380240B9
:101740000014024080B500AF00224FF40041084869
:1017500005F098FD142003F075FC01224FF40041C0
:10176000034805F08FFD782003F06CFC00BF80BDBE
:10177000000C024080B582B000AF0346FB7100222E
:101780004FF400710C4805F07DFD00224FF400512C
:101790000A4805F077FDF91D64230122084807F087
:1017A00056FD01224FF40071034805F06BFD00BFA8
:1017B0000837BD4680BD00BF001002400014024043
:1017C0003C06002080B582B000AF78600B467B807D
:1017D00000224FF400710C4805F054FD01224FF433
:1017E00000510A4805F04EFD7A886423796808485C
:1017F00007F02DFD01224FF40071034805F042FD72
:1018000000BF0837BD4680BD0010024000140240F2
:101810003C06002090B585B000AF0446084611464E
:101820001A462346FB800346BB800B467B8013464B
:101830003B802A20FFF79EFFFB881B0A9BB2DBB28E
:101840003B73FB88DBB27B737B881B0A9BB2DBB2EA
:10185000BB737B88DBB2FB7307F10C0304211846D2
:10186000FFF7B0FF2B20FFF785FFBB881B0A9BB259
:10187000DBB23B73BB88DBB27B733B881B0A9BB23A
:10188000DBB2BB733B88DBB2FB7307F10C030421B3
:101890001846FFF797FF2C20FFF76CFF00BF1437A7
:1018A000BD4690BDB0B5ADF59B6D00AF05460C468D
:1018B0001046194607F59B63A3F2D2432A461A80C5
:1018C00007F59B63A3F2D44322461A8007F59B6376
:1018D000A3F2D54302461A7007F59B63A3F59B63F9
:1018E0000A461A8007F59B63A3F2D5431B781F2B8A
:1018F00006D907F59B63A3F2D5431B787E2B05D948
:1019000007F59B63A3F2D54320221A7007F59B636A
:10191000A3F2D5431B78203B87F8C33497F8EC3407
:101920009BB21A4692001344A7F8C03497F8EC34DF
:101930009BB21A46D200D31AA7F8BE3407F59B63B0
:10194000A3F2D2431A88B7F8C03413449BB2013BC8
:101950009CB207F59B63A3F2D4431A88B7F8BE3450
:1019600013449BB2013B9AB207F59B63A3F2D443A5
:10197000198807F59B63A3F2D243188813462246C1
:10198000FFF748FF0023C7F8D4340023C7F8D0344A
:101990006EE00023C7F8CC345FE00023C7F8C834FA
:1019A00052E097F8C3243B4913469B001344CA18DE
:1019B000D7F8C83413441B781A46D7F8D03442FA03
:1019C00003F3DBB203F0010387F8BD3497F8BD34AD
:1019D000002B05D007F59B63A3F59B631B8801E0F3
:1019E000B7F8E834A7F8BA340023C7F8C43420E0C5
:1019F000B7F8BA341B0A99B2D7F8D4345A1CC7F8CE
:101A0000D424C9B207F59B62A2F59A62D154D7F8E3
:101A1000D4345A1CC7F8D424B7F8BA24D1B207F585
:101A20009B62A2F59A62D154D7F8C4340133C7F847
:101A3000C43497F8EC34D7F8C4249A42D8DBD7F8EA
:101A4000C8340133C7F8C834D7F8C834042BA8DD2C
:101A5000D7F8CC340133C7F8CC3497F8EC34D7F846
:101A6000CC249A4299DBD7F8D0340133C7F8D0346C
:101A7000D7F8D034062B8CDDD7F8D4349AB207F1DE
:101A8000080311461846FFF79DFE00BF07F59B6748
:101A9000BD46B0BD740A010890B587B002AFBA6008
:101AA0001A460346FB810B46BB811346FB801AE0B6
:101AB000BB681A78FC88B989F88997F824300193B3
:101AC0003B8C00932346FFF7EDFE97F824309BB242
:101AD0001A46520013445B009AB2FB891344FB81FF
:101AE000BB680133BB60BB681B78002BE0D100BF33
:101AF00000BF1437BD4690BD80B582B000AF03462D
:101B0000FB71FB79002B06D001224FF4804107487E
:101B100005F0B8FB05E000224FF48041034805F0D2
:101B2000B1FB00BF0837BD4680BD00BF000C0240BE
:101B300080B582B000AF01224FF400711E4805F05D
:101B4000A1FB01224FF400511C4805F09BFB012230
:101B50004FF400411A4805F095FB01224FF48041F3
:101B6000174805F08FFBFFF7EDFD1120FFF702FE90
:101B7000782003F067FA5523FB713A20FFF7FAFD4E
:101B8000FB1D01211846FFF71DFE0023BB71362007
:101B9000FFF7F0FDBB1D01211846FFF713FE2120C2
:101BA000FFF7E8FD2920FFF7E5FD0A2003F04AFAD8
:101BB00000BF0837BD4680BD00100240001402403F
:101BC000000C024080B58EB002AF574B93ED007A07
:101BD000564BD3ED007A37EE277AF0EE006AC7EE67
:101BE000267AC7ED0A7A524B1B78032B0CD0032BB5
:101BF0000DDC012B02D0022B03D008E04D4BFB6221
:101C000008E04D4BFB6205E04C4BFB6202E04C4BA5
:101C1000FB6200BF3B46FA6A4A4918460AF08EFF4B
:101C20003A4602230193002300934FF4784328217E
:101C30001420FFF731FFB86AFEF7A6FC02460B46F8
:101C4000384641490AF07AFF3A46022301930023BD
:101C500000934FF6E07364211420FFF71DFF3B4B08
:101C60001B681846FEF790FC02460B46384638497A
:101C70000AF064FF3A4602230193002300934FF4D5
:101C8000FC63A0211420FFF707FF324B1B78DBB267
:101C9000002B22D03B46304918460AF04FFF3A4607
:101CA00001230193002300934FF6FF734FF48271D9
:101CB0001420FFF7F1FE3B46284918460AF03EFF84
:101CC0003A4601230193002300934FF4FC634FF441
:101CD0008C711420FFF7E0FE21E03B461E491846B8
:101CE0000AF02CFF3A4601230193002300934FF69C
:101CF000FF734FF482711420FFF7CEFE3B46184964
:101D000018460AF01BFF3A46012301930023009373
:101D10004FF6FF734FF48C711420FFF7BDFE00BF28
:101D20003037BD4680BD00BF0806002010060020E9
:101D30001C000020D8090108E4090108F409010881
:101D4000000A01080C0A0108140A0108980400207E
:101D5000280A010806040020380A01084C0A010874
:101D6000600A010880B5FCB000AF024607F5F873C1
:101D7000A3F5F5731A804FF4A073F0220021002020
:101D8000FFF748FD0023C7F8EC3123E007F5F873AF
:101D9000A3F5F5731B881B0A9AB2D7F8EC315B00E8
:101DA000D1B207F5F872A2F5F472D154D7F8EC313C
:101DB0005B00013307F5F872A2F5F5721288D1B213
:101DC00007F5F872A2F5F472D154D7F8EC3101336B
:101DD000C7F8EC31D7F8EC31EF2BD7DD00224FF408
:101DE0000071154805F04EFA01224FF400511348D6
:101DF00005F048FA0023C7F8E8310CE007F10801C4
:101E000064234FF4F0720E4807F021FAD7F8E83156
:101E10000133C7F8E831D7F8E831B3F5A07FEDDB3F
:101E200001224FF40071044805F02CFA00BF07F5B9
:101E3000F877BD4680BD00BF00100240001402408C
:101E40003C06002080B58AB000AF1F4B04221A6107
:101E50001D4B04229A601C4B0022DA601B4B1B882E
:101E60001A461B4B1B681343174A5360194B042235
:101E70001A61184B04229A60164B0022DA60164B46
:101E80001B881A46124B1B681343124A53600123E6
:101E90003B6212237B6100233B6100233B600023F4
:101EA0007B600023BB600023FB600023BB61012338
:101EB000FB6114237B623B461946084803F0AEFDE4
:101EC00000BF2837BD4680BD340400203800002004
:101ED0003C0000204C0400203A0000207C0300203D
:101EE00080B483B000AF78607B681B68054A93427A
:101EF00002D1054B00221A7000BF0C37BD465DF8B9
:101F0000047B7047004800400504002080B500AF06
:101F1000534B1B78DBB2012B00F09F80514B4AF6EC
:101F2000CD321A80504BD3ED007A9FED507A67EE98
:101F3000877AFDEEE77A17EE902A4A4BC3F8022023
:101F40004B4BD3ED007A9FED497A67EE877AFDEE31
:101F5000E77A17EE902A434BC3F80620454BD3EDA2
:101F6000007A9FED427A67EE877AFDEEE77A17EE08
:101F7000902A3C4BC3F80A203F4BD3ED007A9FEDEB
:101F80003B7A67EE877AFDEEE77A17EE902A354BBB
:101F9000C3F80E20394BD3ED007A9FED347A67EE0B
:101FA000877AFDEEE77A17EE902A2E4BC3F81220BF
:101FB000334BD3ED007A9FED2D7A67EE877AFDEEF5
:101FC000E77A17EE902A274BC3F816202D4BD3ED56
:101FD000007A9FED267A67EE877AFDEEE77A17EEB4
:101FE000902A204BC3F81A20274BD3ED007A9FED9F
:101FF0001F7A67EE877AFDEEE77A17EE902A194B83
:10200000C3F81E20214BD3ED007A9FED187A67EEBE
:10201000877AFDEEE77A17EE902A124BC3F822205A
:102020001B4BD3ED007A9FED117A67EE877AFDEEB8
:10203000E77A17EE902A0B4BC3F82620084B0122B3
:102040001A702A220749134808F076FB0346002B32
:1020500004D0034B00221A7000E000BF80BD00BF17
:102060000504002008040020CC04002000007A446D
:10207000E0040020C0040020D404002098040020C4
:10208000E0050020080600201006002014050020AE
:1020900018050020F408002080B500AF3E4B1B68F7
:1020A0005B6A9AB23D4B1A803C4B1B881BB21846A8
:1020B000FEF758FA4FF00002394BFEF7E7FB0246F5
:1020C0000B46104619464FF00002364BFEF7B4FAA5
:1020D00002460B461046194602460B46FEF7F6F836
:1020E00002460B461046194629A3D3E90023FEF702
:1020F000A3FA02460B4610461946FEF795FD034625
:1021000007EE903AF1EE677A274BC3ED007A274B42
:102110001B685B6A9AB2264B1A80254B1B881BB240
:102120001846FEF71FFA4FF000021D4BFEF7AEFBFC
:1021300002460B46104619464FF00002194BFEF7B7
:102140007BFA02460B461046194602460B46FEF73E
:10215000BDF802460B46104619460DA3D3E90023ED
:10216000FEF76AFA02460B4610461946FEF75CFD7A
:102170000346104A1360084B1B6800225A620B4B3F
:102180001B6800225A6200BF80BD00BFAFF3008011
:10219000EA2E4454FB210940F006002006060020E8
:1021A0000000994000004940080600203C0700203C
:1021B0000C0600201006002080B483B000AF034658
:1021C000FB80FB88B3F5005F02D1044B01221A604B
:1021D00000BF0C37BD465DF8047B70471806002031
:1021E00080B582B000AF78603E4B3F4A00217868EE
:1021F00003F008FE0346002B01D001F02DFC3A4B02
:102200005B683A4A128842F4106292B293422ED12D
:10221000344B1B791B021BB21A46324B5B791343BA
:102220001846FEF79FF94FF00002314BFEF72EFBE8
:1022300002460B4610461946FEF7F6FC03462D4AA9
:102240001360284B9B791B02264AD27913432A4AF2
:102250001360294B1B681BB2002B3FDA254BD3EDD3
:10226000007AF1EE677A234BC3ED007A36E01E4B1D
:102270005B68224A128842F4106292B293422DD1D6
:10228000184B1B791B021BB21A46164B5B79134382
:102290001846FEF767F94FF00002154BFEF7F6FA05
:1022A00002460B4610461946FEF7BEFC0346144A8A
:1022B00013600C4B9B791B020A4AD2791343114AD3
:1022C0001360104B1B681BB2002B07DA0C4BD3EDCD
:1022D000007AF1EE677A0A4BC3ED007A00BF083747
:1022E000BD4680BD9004002074040020380000200A
:1022F00000002440CC040020D00400203A0000203C
:10230000E0040020E4040020B0B58EB000AF786097
:102310007B68A54A934241F02181A44B4FF0000213
:102320001A60A34B4FF000021A60A24B1B78012BDE
:1023300014D1A14B1B7883F00103DBB2002B0DD02D
:102340009E4B1B78DBB2002B0CBF01230023DBB2BA
:102350001A469A4B1A709A4B01221A70954B1B78A9
:10236000002B14BF01230023DAB2934B1A70954B54
:102370001B78012B40F09180934B1B7883F0010375
:10238000DBB2002B00F08980904BD3ED007AF0EEA9
:10239000E77A17EE900AFEF7F7F87FA3D3E9002358
:1023A000FEF7BCFB0346002B77D0894BD3ED007AB8
:1023B000F0EEE77A17EE900AFEF7E6F876A3D3E997
:1023C0000023FEF7ABFB0346002B66D0814B1B7846
:1023D0000133DAB27F4B1A707E4B1B78032B02D984
:1023E0007C4B01221A707C4B4FF000021A607B4B31
:1023F0004FF000021A607A4B4FF000021A60794BDE
:102400004FF000021A60784B4FF000021A60774BD1
:102410004FF000021A60764B4FF000021A60754BC5
:102420004FF000021A60744B00221A60734B0022B6
:102430001A60684B1B78032B28D1714B1B68714ABB
:102440001360714BB3F90020704B1A80704B4FF042
:1024500000021A606F4B4FF000021A606E4B4FF093
:1024600000021A6000237B6309E0664B1A686B491F
:102470007B6B9B000B441A607B6B01337B637B6B34
:10248000222BF2DD664B00221A7006E05D4B4FF006
:1024900000021A605D4B00221A804A4B1B78002B09
:1024A00014BF01230023DAB2474B1A705D4B1B683F
:1024B00001335C4A1360474B1B78012B02D1052383
:1024C0003B6308E0434B1B78022B02D119233B638B
:1024D00001E032233B63534B1B683A6B9A4206D8A8
:1024E0008021514804F0E7FE4E4B00221A60464B13
:1024F000B3F90030002B14DA4C4BB3F90030184616
:10250000FEF730F826A3D3E90023FEF7BFF9024611
:102510000B4610461946FEF787FB0346234A136015
:1025200019E0394BB3F90030002B14DD3F4BB3F900
:1025300000301846FEF716F84FF000024FF08143C6
:10254000FEF7A4F902460B4610461946FEF76CFB4F
:102550000346174A1360364B1B78012B6AD11E4B7A
:102560004FF000021A601D4B4FF000021A601C4B26
:102570004FF000021A601B4B4FF000021A601A4B1A
:102580004FF000021A60194B4FF000021A6000F081
:102590000ABF00BFAFF300809A9999999999C93FF2
:1025A0000000000000F07F4020080020C804002048
:1025B000DC040020F20400200704002006040020B0
:1025C00004040020F3040020FC040020080600207E
:1025D000100600201C000020C0040020D4040020AD
:1025E0000405002008050020AC040020B4040020ED
:1025F000B0040020B8040020F4040020F8040020F7
:1026000098040020D0050020EA040020D80500200E
:10261000C8050020CC050020DC0500203005002086
:10262000BC0500200005002000040240E804002052
:10263000F1040020B04B1B78012B40F03283AF4BEC
:1026400000221A60AE4B1B88002B00F09580AD4B2A
:102650001B68002B40F09080A94B1B881846FDF7A3
:1026600081FF9DA3D3E90023FEF710F902460B4634
:1026700014461D46A44BD3ED007AB7EE007A77EEF0
:10268000677A17EE900AFDF77FFF02460B46204659
:102690002946FDF7D1FF02460B4610461946FEF7C4
:1026A000C3FA0346994A1360954B1B881846FDF7F9
:1026B00059FF89A3D3E90023FEF7E8F802460B4649
:1026C00014461D46924BD3ED007AB7EE007A77EEB2
:1026D000677A17EE900AFDF757FF02460B46204631
:1026E0002946FDF7A9FF02460B4610461946FEF79C
:1026F0009BFA0346874A1360844B1B681846FDF714
:1027000043FF77A3D3E90023FEF708FA0346002B23
:1027100010D07E4B1B681846FDF736FF72A3D3E935
:102720000023FEF719FA0346002B03D0774B4FF036
:1027300000021A60774B1B681846FDF725FF68A357
:10274000D3E90023FEF7EAF90346002B10D0714BC2
:102750001B681846FDF718FF63A3D3E90023FEF7B3
:10276000FBF90346002B03D06A4B4FF000021A60BE
:10277000694B01221A6012E0614B1B88002B0ED1BD
:10278000654B1B68012B0AD1634B00221A605F4B1B
:102790004FF000021A605F4B4FF000021A605A4B74
:1027A0001B681846FDF7F0FE51A3D3E90023FEF79E
:1027B000D3F90346002B0CD1554B1B681846FDF787
:1027C000E3FE4BA3D3E90023FEF7C6F90346002B33
:1027D00008D0524B1B68524A1360504B1B68514A39
:1027E000136007E0504B1B684D4A13604E4B1B684B
:1027F0004C4A13604D4B93ED007A444BD3ED007A75
:1028000067EE277AF5EEC07AF1EE10FA13D5484B51
:1028100093ED007A3F4BD3ED007A67EE277AF5EE21
:10282000C07AF1EE10FA06D53D4B424A1A603D4B94
:10283000404A1A60ECE0344BD3ED007AF5EE407A72
:10284000F1EE10FA40F0DC80314BD3ED007AF5EE7A
:10285000407AF1EE10FA40F0D380374B93ED007AD6
:10286000364BD3ED007A77EE677AB1EE047AF4EE68
:10287000C77AF1EE10FA0EDD2B4B1B68284A136065
:10288000294BD3ED007AB0EE087A67EE877A254BB4
:10289000C3ED007ABCE0284B93ED007A274BD3EDD3
:1028A000007A77EE677AB9EE047AF4EEC77AF1EE41
:1028B00010FA45D51C4BD3ED007AB0EE087A67EEDE
:1028C000877A174BC3ED007A174B1B68154A1360C4
:1028D0009EE000BFAFF300800000000000F88F40D2
:1028E000FCA9F1D24D62503FFCA9F1D24D6250BF1C
:1028F0007B14AE47E17A843F1C0000203C0000209E
:10290000EC040020F8040020C80400200405002086
:10291000DC04002008050020F40400202C00002026
:10292000200000202400002028000020C0040020F7
:10293000D40400208FC2F53C0806002010060020B9
:102940009F4B93ED007A9F4BD3ED007A77EE677A39
:10295000B0EE007AF4EEC77AF1EE10FA1BDD984B78
:1029600093ED007A974BD3ED007A77EE677AB1EE6C
:10297000047AF4EEC77AF1EE10FA0CD5924B1B688C
:10298000924A1360904BD3ED007A77EEA77A904B82
:10299000C3ED007A33E08A4B93ED007A894BD3ED97
:1029A000007A77EE677AB8EE007AF4EEC77AF1EE45
:1029B00010FA1BD5824B93ED007A824BD3ED007A4F
:1029C00077EE677AB9EE047AF4EEC77AF1EE10FA90
:1029D0000CDD7D4BD3ED007A77EEA77A7B4BC3ED10
:1029E000007A794B1B687A4A136008E0764B1B68C3
:1029F000764A1360744B1B68754A136008E007E061
:102A0000714B1B68714A13606F4B1B68704A1360EF
:102A1000704B93ED007A704BD3ED007A77EE677AC6
:102A2000B0EEE77A694BD3ED007AB4EEE77AF1EED7
:102A300010FA04D5674B1B68674A136023E0654BA7
:102A400093ED007A644BD3ED007A77EE677AF5EE7A
:102A5000C07AF1EE10FA0BDD5F4B93ED007A5B4B21
:102A6000D3ED007A77EE277A5B4BC3ED007A0AE06C
:102A7000594B93ED007A554BD3ED007A77EE677A98
:102A8000554BC3ED007A554B93ED007A544BD3ED83
:102A9000007A77EE677AB0EEE77A4D4BD3ED007AA5
:102AA000B4EEE77AF1EE10FA04D54C4B1B684C4AB1
:102AB000136023E0494B93ED007A494BD3ED007A44
:102AC00077EE677AF5EEC07AF1EE10FA0BDD444B43
:102AD00093ED007A3E4BD3ED007A77EE277A404BA8
:102AE000C3ED007A0AE03E4B93ED007A384BD3ED0C
:102AF000007A77EE677A3A4BC3ED007A394B1B8840
:102B0000002B79D0384B1B68002B75D1354B1B88B7
:102B10005B421846FDF726FD27A3D3E90023FDF706
:102B2000B5FE02460B4614461D46304BD3ED007AE7
:102B3000B7EE007A77EE677A17EE900AFDF724FD7C
:102B400002460B4620462946FDF776FD02460B4617
:102B500010461946FEF768F803461E4A1360214BDB
:102B60001B885B421846FDF7FDFC13A3D3E9002345
:102B7000FDF78CFE02460B4614461D461C4BD3ED5A
:102B8000007AB7EE007A77EE677A17EE900AFDF7D3
:102B9000FBFC02460B4620462946FDF74DFD02464A
:102BA0000B4610461946FEF73FF803460B4A1360E2
:102BB000104B01221A602AE00000000000F88F404C
:102BC0000806002010060020280000202000002019
:102BD0002400002004050020C00400200805002077
:102BE000D4040020EE040020F4040020C8040020D7
:102BF000DC040020F8040020594B1B88002B06D170
:102C0000584B1B68012B02D1564B00221A60564BC1
:102C100093ED007A554BD3ED007AB4EEE77AF1EEFE
:102C200010FA03DD514B1B684F4A13604F4BD3ED35
:102C3000007AB1EE677A4C4BD3ED007AB4EEE77AC6
:102C4000F1EE10FA07DD494BD3ED007AF1EE677A29
:102C5000454BC3ED007A464B93ED007A434BD3EDE1
:102C6000007AB4EEE77AF1EE10FA03DD3F4B1B6811
:102C70003F4A13603D4BD3ED007AB1EE677A3C4B8F
:102C8000D3ED007AB4EEE77AF1EE10FA40F38B83DD
:102C9000364BD3ED007AF1EE677A354BC3ED007A0F
:102CA00081E3344B1B78022B40F02082324B4FF4EF
:102CB00080721A602A4B1B88002B6DD0294B012291
:102CC0001A602E4B00221A602D4B4FF000021A6042
:102CD0002C4B4FF000021A60214B1B881846FDF761
:102CE00041FC1DA3D3E90023FDF7D0FD02460B46AE
:102CF00010461946FDF798FF0346234A1360224BFE
:102D0000D3ED007AB1EE677A204BD3ED007A27EE4F
:102D1000277A1F4BD3ED007AF7EE006A76EEE77A5A
:102D200067EE277A104BC3ED007A174BD3ED007A8C
:102D3000B1EE677A154BD3ED007A27EE277A154B63
:102D4000D3ED007AF7EE006A76EEE77A67EE277A3F
:102D5000074BC3ED007A44E10000000000F88F400B
:102D6000EE040020F8040020C00400201800002019
:102D7000D40400201C0000203C000020F4040020AB
:102D8000AC040020B40400201C0500201400002026
:102D9000C8040020DC040020B74B00221A60B74BA7
:102DA0001B8807EE903AF8EEE77ADFEDB56A87EE1A
:102DB000A67AB44BD3ED007A67EE277AB24BC3ED17
:102DC000007AB24BD3ED007AB7EE007A37EE677A2D
:102DD000AD4BD3ED007A67EE277AAD4BC3ED007AA9
:102DE000AC4BD3ED007AB7EE007A37EE677AA64B9C
:102DF000D3ED007A67EE277AA74BC3ED007AA44B98
:102E000093ED007AA54BD3ED007A77EE677AA44B69
:102E1000C3ED007AA34B93ED007AA14BD3ED007A7A
:102E200067EE277AA04BC3ED007A9D4BD3ED007A75
:102E30009FED9E7A27EE877A9D4BD3ED007A77EE51
:102E4000277A9B4BC3ED007A9A4BD3ED006A9A4BDD
:102E5000D3ED007A86EEA77A954BD3ED007AB4EEE7
:102E6000E77AF1EE10FA0AD5924BD3ED006A924B55
:102E700093ED007AC6EE877A8D4BC3ED007A8D4BC9
:102E8000D3ED007AF1EE676A8B4BD3ED007A86EED4
:102E9000A77A874BD3ED007AB4EEE77AF1EE10FA19
:102EA0000CDD844BD3ED007AF1EE676A824B93ED33
:102EB000007AC6EE877A7E4BC3ED007A7E4B93EDA7
:102EC000007A7B4BD3ED007A67EE277A7B4BC3ED1C
:102ED000007A734B1B687A4A1360734B93ED007A48
:102EE000764BD3ED007A77EE277A764BC3ED007AF6
:102EF000694B93ED007A744BD3ED007A77EE677AE5
:102F0000724BC3ED007A724B93ED007A6F4BD3EDA9
:102F1000007A67EE277A6F4BC3ED007A6B4BD3EDE7
:102F2000007A9FED627A27EE877A6B4BD3ED007AB9
:102F300077EE277A684BC3ED007A5E4BD3ED006ADB
:102F4000664BD3ED007A86EEA77A634BD3ED007A19
:102F5000B4EEE77AF1EE10FA0AD5564BD3ED006ADB
:102F60005E4B93ED007AC6EE877A5B4BC3ED007A39
:102F7000504BD3ED007AF1EE676A584BD3ED007AEF
:102F800086EEA77A544BD3ED007AB4EEE77AF1EEF1
:102F900010FA0CDD474BD3ED007AF1EE676A4F4B28
:102FA00093ED007AC6EE877A4B4BC3ED007A4B4B1C
:102FB00093ED007A484BD3ED007A67EE277A484BC1
:102FC000C3ED007A414B1B68464A1360414B93EDB9
:102FD000007A434BD3ED007A77EE277A424BC3ED6C
:102FE000007A384B93ED007A324BD3ED007AB4EE91
:102FF000E77AF1EE10FA03DD2E4B1B68314A1360BD
:103000002C4BD3ED007AB1EE677A2E4BD3ED007ADC
:10301000B4EEE77AF1EE10FA07DD264BD3ED007A35
:10302000F1EE677A274BC3ED007A2F4B93ED007AD0
:10303000204BD3ED007AB4EEE77AF1EE10FA03DD1F
:103040001C4B1B68284A13601A4BD3ED007AB1EE73
:10305000677A254BD3ED007AB4EEE77AF1EE10FAF9
:1030600040F3A181134BD3ED007AF1EE677A1E4B4A
:10307000C3ED007A97E100BFF8040020EC040020C3
:1030800000C07F4410000020BC040020C8040020C1
:1030900014050020DC040020180500201006002084
:1030A0000C05002000000020200500200AD7A33CCA
:1030B000AC0400201400002004000020280500209B
:1030C000B0040020C00400200806002010050020E5
:1030D0000800002024050020B40400200C0000207B
:1030E0002C050020B8040020D4040020C24B1B781B
:1030F000032B40F05881C14B4FF480721A60C04BD3
:10310000B3F900301A46BF4BB3F90030D31A07EEBB
:10311000903AF8EEE77AC7ED097A97ED097ADFED94
:10312000BA6AC7EE267A9FEDB97A67EE877AC7ED5D
:103130000B7AD7ED0B7AF0EEE77AB6EE007AF4EE82
:10314000C77AF1EE10FA02D54FF00003FB62B04BE4
:1031500093ED007AD7ED0B7A77EE277AAD4BC3ED7E
:10316000007AAD4B1B78AD4A9B0013441B683B6251
:10317000A94B1B781846A74B1A68A84983000B4433
:103180001A60A54B1B780133DAB2A34B1A70A24B1D
:103190001B78222B02D9A04B00221A709D4BD3ED35
:1031A000007A9FED9F7A27EE877AD7ED087ADFEDD8
:1031B0009D6A67EEA67A77EE277A9B4BC3ED007A7D
:1031C000994B93ED007A994BD3ED007A77EE677ABD
:1031D000974BC3ED007A974B93ED007A944BD3ED68
:1031E000007A67EE277AC7ED077A914BD3ED007A24
:1031F0009FED917A27EE877A904BD3ED007A77EEA8
:10320000277A8E4BC3ED007A8D4B93ED007AF0EE6A
:10321000006AC7EE267AC7ED0A7A8A4BD3ED007AA8
:103220009FED897AF4EEC77AF1EE10FA09DD844B4E
:10323000D3ED006A834B93ED007AC6EE877AC7ED33
:103240000A7A7E4BD3ED007A97ED0A7AB4EEE77AEC
:10325000F1EE10FA02D5794ABB6A1360D7ED0A7A0B
:10326000B1EE677A754BD3ED007AB4EEE77AF1EE02
:1032700010FA06DDD7ED0A7AF1EE677A6F4BC3EDEF
:10328000007A704B93ED007A6C4BD3ED007A67EEC9
:10329000277AC7ED067A664B93ED007A6B4BD3ED38
:1032A000007A37EE677ADFED646AC7EE267AC7EDFB
:1032B000057AD7ED057A9FED667A27EE877A654B1A
:1032C000D3ED007ADFED646A67EEA67A77EE277AAF
:1032D000604BC3ED007A614B93ED007A5D4BD3ED0B
:1032E000007A67EE277AC7ED047A514B1B68574A7C
:1032F000136097ED077AD7ED067A77EE277A97ED88
:10330000047A77EE277AC7ED037A554AFB68136093
:10331000544AFB681360524B93ED007A484BD3ED4F
:10332000007AB4EEE77AF1EE10FA03DD444B1B6845
:103330004B4A1360424BD3ED007AB1EE677A484BAB
:10334000D3ED007AB4EEE77AF1EE10FA07DD3C4BEC
:10335000D3ED007AF1EE677A414BC3ED007A414B31
:1033600093ED007A364BD3ED007AB4EEE77AF1EEC6
:1033700010FA03DD324B1B683A4A1360304BD3ED31
:10338000007AB1EE677A374BD3ED007AB4EEE77A84
:10339000F1EE10FA07DD2A4BD3ED007AF1EE677AF1
:1033A000304BC3ED007A144B1B78012B66D12C4BAC
:1033B0001B681846FDF7E8F80DA3D3E90023FDF7D5
:1033C0003BF902460B4610461946FDF7E5FB03465E
:1033D000254A1360234B1B681846FDF7D5F804A354
:1033E000D3E90023FDF728F902460B463EE000BF73
:1033F00000000000006AF8401C0000203C00002093
:10340000EA040020D80500200000004400000C421F
:10341000D0050020E0050020BC050020300500207C
:10342000E7FB093F0E2DF23EC00500209804002066
:10343000D4050020300000200AD7A33CC805002096
:1034400014000020C405002017B7D138CC05002097
:103450009A99193FDC050020CCCCCC3E34000020EA
:10346000C0040020D4040020C404002010461946E3
:10347000FDF792FB0346524A136025E0514B1B684F
:103480001846FDF781F84FF000024F4BFDF7D4F8D6
:1034900002460B4610461946FDF77EFB03464B4A93
:1034A00013604B4B1B681846FDF76EF84FF0000297
:1034B000454BFDF7C1F802460B4610461946FDF78D
:1034C0006BFB03463E4A1360424B1B881A46424B35
:1034D0001B681343414A5360414B1B881A463E4BBD
:1034E0001B6813433F4A5360384B1B681B0EDAB20C
:1034F0003D4B1A70354B1B681B14DAB23A4B5A70AD
:10350000324B1B681B12DAB2374B9A702F4B1B6879
:10351000DAB2354BDA702A4B1B681B0EDAB2334B2A
:103520001A70274B1B681B14DAB2304B5A70244BAD
:103530001B681B12DAB22D4B9A70214B1B68DAB252
:103540002A4BDA702A4B284A24492A4802F08AFB7F
:10355000294B264A2349274802F084FB7B68274AE7
:1035600093421ED1264A2749274800F0D1FA27491D
:10357000274800F0C9FB274BB3F90030002BB8BF38
:103580005B429BB21AB2244B1A80FEF785FD234B97
:1035900001221A70224B1B889BB201339AB2204B36
:1035A0001A807B681F4A934206D11F4B1B78DBB2FF
:1035B000002B01D0FEF7AAFC00BF3837BD46B0BDD6
:1035C000D8040020C004002000408F40C404002024
:1035D000D4040020380000203C00002034040020E7
:1035E0003A0000204C0400206404002068040020FD
:1035F0006C0400207C03002070040020A40600203E
:10360000A8040020A4040020A00400209C040020A2
:1036100098040020EA040020E804002004040020AC
:1036200014060020880700200604002080B584B01E
:1036300000AF78600B467B807B681B687D4A9342B5
:1036400040F0F3807C4A7B8813807C4B1B793A2BBB
:1036500040F0E68004227949794809F0DAFA784B9B
:1036600000221A71764808F0B0FAB860BB6813F50A
:10367000007F03DA4FF04443FB600DE0BB68B3F515
:10368000007F02DB6F4BFB6006E0BB6807EE903A01
:10369000F8EEE77AC7ED037AD7ED037A9FED6A7A01
:1036A00027EE877A694BD3ED007ADFED696A67EE22
:1036B000A67A77EE277A654BC3ED007A634BD3ED9C
:1036C000007AFDEEE77A17EE903A1AB2614B1A8053
:1036D000614B042219465A4809F09BFA584B0022C4
:1036E0001A71574808F071FAB860BB68002B03DA0A
:1036F0004FF00003FB600DE0BB68B3F5806F02DBA9
:10370000564BFB6006E0BB6807EE903AF8EEE77AAE
:10371000C7ED037AD7ED037A9FED4B7A27EE877AD0
:103720004F4BD3ED007ADFED4A6A67EEA67A77EE6B
:10373000277A4B4BC3ED007A494BD3ED007AFCEE70
:10374000E77A17EE903A9AB2464B1A80464B04221B
:1037500019463B4809F05DFA394B00221A71384886
:1037600008F033FAB860BB68002B03DA4FF00003AF
:10377000FB600DE0BB68B3F5806F02DB374BFB608D
:1037800006E0BB6807EE903AF8EEE77AC7ED037AF9
:10379000D7ED037A9FED2C7A27EE877A334BD3ED62
:1037A000007ADFED2B6A67EEA67A77EE277A2F4B49
:1037B000C3ED007A2D4BD3ED007AFCEEE77A17EEDD
:1037C000903A9AB22A4B1A801C4BDB7B312B03D1E7
:1037D000284B01221A7002E0264B00221A70174B68
:1037E0005B7C312B03D1244B01221A7002E0224B67
:1037F00000221A70114BDB7C312B03D11F4B0122AD
:103800001A7002E01D4B00221A700C4B5B7D312BAD
:1038100003D11B4B01221A7002E0194B00221A70CF
:1038200020220649174808F07CF900BF1037BD4632
:1038300080BD00BF0044004004060020E4050020D5
:103840001C0600200080FF439A99193FF8030020CE
:10385000CCCCCC3EEA040020E905002000C07F4427
:10386000FC030020EC040020EE05002000040020F2
:10387000EE040020F0040020F1040020F2040020F7
:10388000F30400206C08002080B500AF01F07DFB40
:1038900000F07AF8FDF750FDFDF714FDFDF790FC00
:1038A000FDF7C0FB01F000FA01F0CEF9FDF7ACFE28
:1038B00000F0FEFE00F050FF00F0A4FF01F048F819
:1038C00001F07EF800F0BEFC00F0F2FF244802F0A8
:1038D00085F9FEF7B7FA00F0C5F8FEF729F964207C
:1038E000FEF70AF90020FEF73DFAFEF76BF91D48D6
:1038F00006F016F91C4806F013F91C4806F010F9FA
:103900003C211B4806F02AFA3C211A4806F026FA08
:10391000194806F005F9194B1B6808221A62174B63
:103920001B6804221A62154B1B6802221A62134B91
:103930001B6810221A6220221149104808F0F1F881
:103940000221074802F080FB0E4B1B78DBB2002BF4
:10395000FAD0FEF737F90B4B00221A70F4E700BFDC
:103960007C030020A406002020080020D4070020AB
:10397000F00600203C070020880700206C0800208B
:10398000E40500200404002080B594B000AF07F1E6
:10399000200330220021184609F033F907F10C0307
:1039A00000221A605A609A60DA601A6104F0DAFA4A
:1039B000274B1B6C264A43F080531364244B1B6C2B
:1039C00003F08053BB60BB68224B1B6823F4404369
:1039D000204A43F4804313601E4B1B6803F44043AA
:1039E0007B607B6801233B624FF480337B62022360
:1039F000BB634FF48003FB6304233B6448237B6475
:103A00000223BB640323FB6407F12003184604F080
:103A1000B9FA0346002B01D000F01EF80F23FB601B
:103A200002233B6100237B614FF48053BB61002381
:103A3000FB6107F10C030221184604F047FD034621
:103A4000002B01D000F008F800BF5037BD4680BD04
:103A5000003802400070004080B400AF72B600BF72
:103A600000BFFDE780B586B004AF4FF47A730293D0
:103A700001230193FB1D009301237522D0212348CC
:103A800003F0FCFDFB79682B3BD10023BB714FF4A5
:103A90007A73029301230193BB1D009301236B22D0
:103AA000D0211A4803F0D6FC0723BB714FF47A7378
:103AB000029301230193BB1D009301231922D021FE
:103AC000124803F0C7FC0023BB714FF47A730293D2
:103AD00001230193BB1D009301231C22D0210B481D
:103AE00003F0B8FC0023BB714FF47A7302930123F7
:103AF0000193BB1D009301231B22D021034803F037
:103B0000A9FC00BF0837BD4680BD00BFA40300204C
:103B100080B58AB004AFF860B9607A604FF47A7308
:103B200002930623019307F11003009301233B2224
:103B3000D021314803F0A2FD3B7C1B021AB27B7CF2
:103B40001BB213431AB22D4B1A80BB7C1B021AB254
:103B5000FB7C1BB213431AB2294B1A803B7D1B021C
:103B60001AB27B7D1BB213431AB2264B1A80234B29
:103B7000B3F900301846FCF7F5FC4FF00002224B79
:103B8000FCF784FE02460B4610461946FDF74CF83A
:103B90000246FB681A601A4BB3F900301846FCF76E
:103BA000E1FC4FF00002184BFCF770FE02460B469A
:103BB00010461946FDF738F80246BB681A60114BEB
:103BC000B3F900301846FCF7CDFC09A3D3E9002374
:103BD000FCF75CFE02460B4610461946FDF724F83A
:103BE00002467B681A6000BF1837BD4680BD00BF23
:103BF000000000000029CC40A40300202206002081
:103C000024060020260600200000D040000000000E
:103C100080B58AB004AFF860B9607A604FF47A7307
:103C200002930623019307F110030093012343221B
:103C3000D021314803F022FD3B7C1B021AB27B7C71
:103C40001BB213431AB22D4B1A80BB7C1B021AB253
:103C5000FB7C1BB213431AB2294B1A803B7D1B021B
:103C60001AB27B7D1BB213431AB2264B1A80234B28
:103C7000B3F900301846FCF775FC1DA3D3E9002307
:103C8000FCF704FE02460B4610461946FCF7CCFF33
:103C90000246FB681A601A4BB3F900301846FCF76D
:103CA00061FC13A3D3E90023FCF7F0FD02460B46A9
:103CB00010461946FCF7B8FF0246BB681A60114B64
:103CC000B3F900301846FCF74DFC09A3D3E90023F3
:103CD000FCF7DCFD02460B4610461946FCF7A4FF34
:103CE00002467B681A6000BF1837BD4680BD00BF22
:103CF0000000000000606040A403002028060020AF
:103D00002A0600202C060020B0B590B000AF7860E5
:103D1000396007F1140207F1180107F11C03184676
:103D2000FFF7F6FE07F1080207F10C0107F1100397
:103D30001846FFF76DFF01F079F90246864B1B68C4
:103D4000D31A1846FCF7FEFB4FF00002834BFCF73A
:103D50009DFD02460B46C7E90C2301F067F90346B7
:103D60007D4A13607E4BB3F900301A467C4BB3F9A1
:103D7000003003FB02F27B4BB3F900301946794B5C
:103D8000B3F9003001FB03F313441846FCF7EAFBD8
:103D900002460B4643EC102B0CF0A2FA87ED0A0BFF
:103DA0004FF000024FF00003D7E90A01FCF7ACFE28
:103DB0000346002B1FD16C4BB3F900301846FCF7BB
:103DC000D1FBD7E90A23FCF761FD02460B4643EC21
:103DD000172BB0EE470AF0EE670A0CF0ADFA51EC83
:103DE000100B5BA3D3E90023FCF726FC02460B462D
:103DF000C7E90E2305E04FF000024FF00003C7E9CA
:103E00000E23574BB3F900305B421846FCF7AAFB70
:103E100004460D46534BB3F900301846FCF7A2FB9D
:103E200002460B4643EC112B45EC104B0CF056FAB6
:103E300051EC100B46A3D3E90023FCF7FDFB02462F
:103E40000B46C7E908234FF00002484BD7E90801A9
:103E5000FCF764FE0346002B09D0454BD3ED007AF6
:103E60009FED447AF4EEC77AF1EE10FA13DC4FF0CE
:103E70000002414BD7E90801FCF76EFE0346002B18
:103E800016D03B4BD3ED007A9FED3C7AF4EEC77A27
:103E9000F1EE10FA0CD53A49D7E90823C1E9062317
:103EA000D7E90801FCF7C0FE0346314A136017E06A
:103EB000FB681846FCF768FB02460B4697ED0C2B97
:103EC00043EC112B97ED080B2D4800F05FF853ECF5
:103ED000102B10461946FCF7A7FE0346244A136030
:103EE000234BD3ED007AF0EEE77A9FED227AF4EEE1
:103EF000C77AF1EE10FA05DDD7ED047AF1EE677AB4
:103F0000C7ED047A3B691846FCF73EFB02460B46B8
:103F100097ED0C2B43EC112B97ED0E0B194800F08D
:103F200035F853EC102B10461946FCF77DFE03467E
:103F3000154A1360144B1A687B681A600C4B1A6898
:103F40003B681A6000BF4037BD46B0BDAFF300808C
:103F5000F8C1631ADCA54C403006002000408F40B9
:103F6000220600202606002024060020008056C0DD
:103F7000380600200000B442008056400000B4C261
:103F8000880000204000002034060020B0B596B024
:103F900000AFF86187ED040B87ED021B87ED002B66
:103FA000FB69D3E90823D7E90201FCF78DF9024642
:103FB0000B46C7E91423FB69D3E90645D7E9142367
:103FC000D7E90001FCF738FB02460B46204629469C
:103FD000FCF77CF902460B46F969C1E90623FB6947
:103FE000D3E90A45FB69D3E91001D7E90023FCF7BF
:103FF00023FB02460B4610461946FB69D3E90C2306
:10400000FCF762F902460B4610461946FB69D3E9F4
:104010000E23FCF759F902460B4610461946FB6978
:10402000D3E90023FCF752F902460B461046194625
:10403000D7E90023FCF700FB02460B462046294641
:10404000FCF744F902460B46F969C1E90A23FB690A
:10405000D3E90C45FB69D3E91001D7E90023FCF74C
:10406000EBFA02460B4620462946FCF72DF902469C
:104070000B46F969C1E90C23FB69D3E90E45FB69DD
:10408000D3E91001D7E90023FCF7D6FA02460B4624
:1040900020462946FCF718F902460B46F969C1E9A2
:1040A0000E23FB69D3E91045FB69D3E90201D7E987
:1040B0000023FCF7C1FA02460B4620462946FCF7CE
:1040C00005F902460B46F969C1E91023FB69D3E9FA
:1040D0000A01FB69D3E90423FCF7F8F802460B4612
:1040E000C7E91223FB69D3E90A01D7E91223FCF7D8
:1040F000CDFB02460B46C7E90823FB69D3E90E0155
:10410000D7E91223FCF7C2FB02460B46C7E90A2394
:10411000FB69D3E90623D7E90401FCF7D5F8024689
:104120000B46C7E91023FB69D3E90645D7E9080127
:10413000D7E91023FCF780FA02460B4620462946B1
:10414000FCF7C4F802460B46F969C1E90623FB698E
:10415000D3E90845D7E90A01D7E91023FCF76CFA3F
:1041600002460B4620462946FCF7B0F802460B46AD
:10417000F969C1E90823FB69D3E90A23C7E90E23DA
:10418000FB69D3E90C23C7E90C23FB69D3E90A4592
:10419000D7E90801D7E90E23FCF74EFA02460B4691
:1041A00020462946FCF790F802460B46F969C1E91A
:1041B0000A23FB69D3E90C45D7E90801D7E90C23A9
:1041C000FCF73AFA02460B4620462946FCF77CF8F3
:1041D00002460B46F969C1E90C23FB69D3E90E4598
:1041E000D7E90A01D7E90E23FCF726FA02460B4667
:1041F00020462946FCF768F802460B46F969C1E9F2
:104200000E23FB69D3E91045D7E90A01D7E90C234E
:10421000FCF712FA02460B4620462946FCF754F8F2
:1042200002460B46F969C1E91023FB69D3E906236D
:1042300043EC172BB0EE470AF0EE670A5837BD463D
:10424000B0BD000080B500AF1B4B1C4A1A601A4B72
:104250004FF482725A60184B00229A60164B4FF44A
:10426000E062DA60144B00221A61134B00225A619B
:10427000114B4FF400729A610F4B2822DA610E4BFA
:1042800000221A620C4B00225A620B4B00229A62E7
:10429000094B0722DA62084B00221A63064B0822F8
:1042A0005A63054804F028FF0346002B01D0FFF7AE
:1042B000D3FB00BF80BD00BF3C060020003401409E
:1042C00080B58AB000AF786007F1140300221A604D
:1042D0005A609A60DA601A617B681B681B4A9342D5
:1042E00030D11B4B5B6C1A4A43F400535364184B98
:1042F0005B6C03F400533B613B69154B1B6B144A29
:1043000043F010031363124B1B6B03F01003FB60AD
:10431000FB684FF4A0437B610223BB610023FB6178
:1043200003233B6205237B6207F114031946094806
:1043300002F0FCFD00220021542002F0B6F95420C6
:1043400002F0CFF900BF2837BD4680BD00340140E0
:10435000003802400010024080B483B000AF0F4B21
:104360001B6C0E4A43F0805313640C4B1B6C03F020
:1043700080537B607B68094B5B6C084A43F4804345
:104380005364064B5B6C03F480433B603B6800BFA7
:104390000C37BD465DF8047B704700BF0038024013
:1043A00080B400AF00BFFDE780B400AF00BFFDE701
:1043B00080B400AF00BFFDE780B400AF00BFFDE7F1
:1043C00080B400AF00BFFDE780B400AF00BFBD46C2
:1043D0005DF8047B704780B400AF00BFBD465DF858
:1043E000047B704780B400AF00BFBD465DF8047B1E
:1043F000704780B500AF00F005FE00BF80BD000033
:1044000080B500AF024802F027FB00BF80BD00BFAF
:10441000DC09002080B500AF024802F01DFB00BFA0
:1044200080BD00BF7C09002080B500AF024800F0CD
:1044300071FE00BF80BD00BFD402002080B500AF78
:10444000024801F027FE00BF80BD00BF7C030020B2
:1044500080B500AF024805F00FFD00BF80BD00BF72
:10446000A406002080B500AF024806F0E1F900BFC5
:1044700080BD00BF6C08002080B500AF024806F088
:10448000D7F900BF80BD00BFF408002080B500AFA1
:104490004FF4005002F02AFF00BF80BD80B500AF8E
:1044A000024805F0E9FC00BF80BD00BF880700207E
:1044B00080B500AF024805F0DFFC00BF80BD00BF43
:1044C000D407002080B500AF024805F0D5FC00BF3E
:1044D00080BD00BF2008002080B500AF024802F078
:1044E000BBFA00BF80BD00BF1C03002080B500AF39
:1044F000024805F021F800BF80BD00BF3C06002047
:1045000080B400AF01231846BD465DF8047B7047B8
:1045100080B582B000AF7860396008F0D7FB034601
:1045200016221A604FF0FF3318460837BD4680BD8B
:1045300080B582B000AF78604FF0FF317868FFF748
:10454000E7FF00BFFDE780B586B000AFF860B96057
:104550007A6000237B610AE0AFF300800146BB680C
:104560005A1CBA60CAB21A707B6901337B617A69DE
:104570007B689A42F0DB7B6818461837BD4680BDE1
:1045800080B586B000AFF860B9607A6000237B61C7
:1045900009E0BB685A1CBA601B781846AFF300806C
:1045A0007B6901337B617A697B689A42F1DB7B68C6
:1045B00018461837BD4680BD80B483B000AF786020
:1045C0004FF0FF3318460C37BD465DF8047B70474B
:1045D00080B483B000AF786039603B684FF400521C
:1045E0005A60002318460C37BD465DF8047B7047BF
:1045F00080B483B000AF7860012318460C37BD4605
:104600005DF8047B704780B485B000AFF860B96096
:104610007A60002318461437BD465DF8047B704766
:1046200080B586B000AF7860144A154BD31A7B6111
:104630007B693B61134B1B68002B02D1114B124A63
:104640001A60104B1A687B6813443A699A4207D281
:1046500008F03CFB03460C221A604FF0FF3309E0E0
:10466000084B1B68FB60074B1A687B681344054ABC
:104670001360FB6818461837BD4680BD0000052052
:1046800000040000A0060020900B002080B400AFC2
:10469000064BD3F88830054A43F47003C2F88830DB
:1046A00000BFBD465DF8047B704700BF00ED00E031
:1046B00080B588B000AF07F1100300221A605A607D
:1046C0009A60DA603B1D00221A605A609A60204BA3
:1046D000204A1A601E4B40F2CF225A601C4B002227
:1046E0009A601B4B40F2CF72DA60194B00221A61BC
:1046F000174B00225A61164B00229A61144805F0AC
:10470000B7F90346002B01D0FFF7A6F94FF4805309
:104710003B6107F1100319460D4805F0B5FC03464F
:10472000002B01D0FFF798F900237B600023BB60CA
:104730000023FB603B1D1946054805F003FF0346B7
:10474000002B01D0FFF788F900BF2037BD4680BDA0
:10475000A40600200000014080B58CB000AF07F136
:104760000C0324220021184608F04BFA3B46002295
:104770001A605A609A60214B214A1A601F4B00222E
:104780005A601E4B00229A601C4B4FF6FF72DA6093
:104790001A4B00221A61194B00229A610323FB6015
:1047A00000233B6101237B610023BB610023FB618C
:1047B00000233B6201237B620023BB620023FB6278
:1047C00007F10C0319460D4805F022FA0346002BA9
:1047D00001D0FFF741F900233B600023BB603B465B
:1047E0001946064805F0AEFE0346002B01D0FFF740
:1047F00033F900BF3037BD4680BD00BFF006002052
:104800000004004080B58CB000AF07F10C032422F7
:104810000021184608F0F5F93B4600221A605A605C
:104820009A60214B214A1A601F4B00225A601E4B8E
:1048300000229A601C4B4FF6FF72DA601A4B00227E
:104840001A61194B00229A610323FB6000233B612C
:1048500001237B610023BB610023FB6100233B62DA
:1048600001237B620023BB620023FB6207F10C0380
:1048700019460D4805F0CCF90346002B01D0FFF78F
:10488000EBF800233B600023BB603B46194606481B
:1048900005F058FE0346002B01D0FFF7DDF800BFFE
:1048A0003037BD4680BD00BF3C07002000080040F7
:1048B00080B588B000AF07F1100300221A605A607B
:1048C0009A60DA603B1D00221A605A609A601E4BA3
:1048D0001E4A1A601C4B40F2CF225A601A4B00222B
:1048E0009A60194B40F2CF72DA60174B00221A61BE
:1048F000154B00229A61144805F0BAF80346002BC4
:1049000001D0FFF7A9F84FF480533B6107F1100382
:1049100019460D4805F0B8FB0346002B01D0FFF700
:104920009BF800237B600023FB603B1D1946064873
:1049300005F008FE0346002B01D0FFF78DF800BFFD
:104940002037BD4680BD00BF88070020000C004016
:1049500080B584B000AF3B1D00221A605A609A6097
:10496000154B164A1A60144B40F2CF225A60124B74
:1049700000229A60104B44F61F62DA600E4B002250
:104980009A610D4805F074F80346002B01D0FFF73B
:1049900063F800237B600023FB603B1D194606483B
:1049A00005F0D0FD0346002B01D0FFF755F800BFFE
:1049B0001037BD4680BD00BFD40700200010004066
:1049C00080B584B000AF3B1D00221A605A609A6027
:1049D000144B154A1A60134B47225A60114B0022A0
:1049E0009A60104B44F61F62DA600E4B00229A6107
:1049F0000C4805F03DF80346002B01D0FFF72CF8DA
:104A000000237B600023FB603B1D1946054805F031
:104A100099FD0346002B01D0FFF71EF800BF1037A9
:104A2000BD4680BD200800200014004080B586B03F
:104A300000AF78607B681B68344A934214D1344BD2
:104A40005B6C334A43F001035364314B5B6C03F0FE
:104A500001037B617B6900220221192001F025FE00
:104A6000192001F03EFE4CE07B681B68294A934206
:104A700014D1274B1B6C264A43F008031364244BC4
:104A80001B6C03F008033B613B69002200213220CC
:104A900001F00BFE322001F024FE32E07B681B683F
:104AA0001D4A934214D11A4B1B6C194A43F0100350
:104AB0001364174B1B6C03F01003FB60FB680022B0
:104AC0000021362001F0F1FD362001F00AFE18E049
:104AD0007B681B68114A934213D10D4B1B6C0C4A27
:104AE00043F0200313640A4B1B6C03F02003BB60EC
:104AF000BB6800220021372001F0D7FD372001F0EC
:104B0000F0FD00BF1837BD4680BD00BF000001406A
:104B100000380240000C004000100040001400402B
:104B200080B58CB000AF786007F11C0300221A60DA
:104B30005A609A60DA601A617B681B683C4A93424B
:104B400044D13C4B1B6C3B4A43F002031364394B8A
:104B50001B6C03F00203BB61BB69364B1B6B354A10
:104B600043F001031363334B1B6B03F001037B61C1
:104B70007B69304B1B6B2F4A43F0040313632D4BAF
:104B80001B6B03F004033B613B694023FB61022381
:104B90003B6200237B620023BB620223FB6207F1BE
:104BA0001C031946244802F0C1F98023FB6102234B
:104BB0003B6200237B620023BB620223FB6207F19E
:104BC0001C0319461D4802F0B1F92DE07B681B68F3
:104BD0001B4A934228D1174B1B6C164A43F004031F
:104BE0001364144B1B6C03F00403FB60FB68114B54
:104BF0001B6B104A43F0080313630E4B1B6B03F04F
:104C00000803BB60BB684FF44053FB6102233B6267
:104C100000237B620023BB620223FB6207F11C03BB
:104C20001946084802F082F900BF3037BD4680BD02
:104C3000000400400038024000000240000802402A
:104C400000080040000C024080B500AF144B154A2C
:104C50001A60134B4FF4E1325A60114B00229A60F4
:104C60000F4B0022DA600E4B00221A610C4B0C2213
:104C70005A610B4B00229A61094B0022DA61084B02
:104C800000221A62064B00225A62054805F006FD12
:104C90000346002B01D0FEF7DFFE00BF80BD00BF42
:104CA0006C0800200044004080B500AF144B154A4A
:104CB0001A60134B4FF4E1325A60114B00229A6094
:104CC0000F4B0022DA600E4B00221A610C4B0C22B3
:104CD0005A610B4B00229A61094B0022DA61084BA2
:104CE00000221A62064B00225A62054805F0D6FCE3
:104CF0000346002B01D0FEF7AFFE00BF80BD00BF12
:104D0000F40800200048004080B5ACB000AF7860E7
:104D100007F19C0300221A605A609A60DA601A61F7
:104D200007F1180384220021184607F06AFF7B6808
:104D30001B68794A934271D18023BB6100233B6693
:104D400007F11803184603F0E7FD0346002B01D0D6
:104D5000FEF782FE714B1B6C704A43F40033136400
:104D60006E4B1B6C03F400337B617B696B4B1B6BDD
:104D70006A4A43F008031363684B1B6B03F0080394
:104D80003B613B696023C7F89C300223C7F8A03021
:104D90000023C7F8A4300323C7F8A8300723C7F8B7
:104DA000AC3007F19C0319465D4802F0BFF85D4B3B
:104DB0005D4A1A605B4B4FF000625A60594B00220B
:104DC0009A60584B0022DA60564B4FF480621A61A9
:104DD000544B00225A61534B00229A61514B0022DE
:104DE000DA61504B00221A624E4B00225A624D4843
:104DF00001F092FC0346002B01D0FEF72DFE7B68EC
:104E0000484A5A67474A7B6893630022002126205C
:104E100001F04BFC262001F064FC78E07B681B6805
:104E2000424A934273D14FF48073BB6100237B6687
:104E300007F11803184603F06FFD0346002B01D05D
:104E4000FEF70AFE354B1B6C344A43F4802313648F
:104E5000324B1B6C03F48023FB60FB682F4B1B6BF6
:104E60002E4A43F0080313632C4B1B6B03F008031B
:104E7000BB60BB684FF44073C7F89C300223C7F88F
:104E8000A0300123C7F8A4300323C7F8A8300723B4
:104E9000C7F8AC3007F19C031946214802F046F8E8
:104EA000234B244A1A60224B4FF000625A60204B79
:104EB00040229A601E4B0022DA601D4B4FF4806244
:104EC0001A611B4B00225A61194B00229A61184B40
:104ED0000022DA61164B4FF480321A62144B002222
:104EE0005A62134801F018FC0346002B01D0FEF76C
:104EF000B3FD7B680E4A1A670D4A7B6893630022F4
:104F00000321272001F0D1FB272001F0EAFB00BF9D
:104F1000B037BD4680BD00BF0044004000380240AD
:104F2000000C02407C0900208860024000480040DC
:104F3000DC09002058600240DFF834D00D480E49EB
:104F40000E4A002302E0D458C4500433C4188C42E3
:104F5000F9D30B4A0B4C002301E013600432A24248
:104F6000FBD3FFF793FB07F0B7FEFEF78DFC70470E
:104F70000000052000000020B802002020110108D8
:104F8000B80200208C0B0020FEE780B500AF0320A4
:104F900001F080FB002000F005F8FFF7DDF90023A9
:104FA000184680BD80B582B000AF7860124B1A6899
:104FB000124B1B7819464FF47A73B3FBF1F3B2FB33
:104FC000F3F3184601F09BFB0346002B01D00123AD
:104FD0000EE07B680F2B0AD8002279684FF0FF3073
:104FE00001F063FB064A7B681360002300E00123A5
:104FF00018460837BD4680BDD0000020D8000020EC
:10500000D400002080B400AF064B1B781A46064B34
:105010001B681344044A136000BFBD465DF8047B5F
:10502000704700BFD80000203C0A002080B400AFC9
:10503000034B1B681846BD465DF8047B704700BFF4
:105040003C0A002080B584B000AF7860FFF7EEFF27
:10505000B8607B68FB60FB68B3F1FF3F05D00A4B8B
:105060001B781A46FB681344FB6000BFFFF7DEFFA6
:105070000246BB68D31AFA689A42F7D800BF00BF4D
:105080001037BD4680BD00BFD800002080B584B079
:1050900000AF78600023FB737B68002B01D10123F4
:1050A00031E07B681B6C002B09D17868FCF70CF8A9
:1050B0007B6800225A647B68002283F83C207B686E
:1050C0001B6C03F01003002B16D17B681A6C104B7D
:1050D000134043F002027B681A64786800F09EFA7D
:1050E0007B6800225A647B681B6C23F0030343F047
:1050F00001027B681A6401E00123FB737B680022D4
:1051000083F83C20FB7B18461037BD4680BD00BFAE
:10511000FDEEFFFF80B586B000AF786000237B61B5
:1051200000233B617B681B681B68FB607B681B6816
:105130005B68BB60FB6803F002037B61BB6803F044
:1051400020033B617B69002B49D03B69002B46D093
:105150007B681B6C03F01003002B05D17B681B6C74
:1051600043F400727B681A647B681B689B6803F0D9
:105170004053002B2BD17B689B69002B27D17B6888
:105180001B68DB6A03F47003002B06D07B681B6886
:105190009B6803F48063002B19D17B681B685A68F5
:1051A0007B681B6822F020025A607B681B6C23F42A
:1051B00080727B681A647B681B6C03F48053002B3D
:1051C00005D17B681B6C43F001027B681A64786828
:1051D00000F0B0F87B681B686FF012021A60FB6881
:1051E00003F004037B61BB6803F080033B617B69D0
:1051F000002B57D03B69002B54D07B681B6C03F00D
:105200001003002B05D17B681B6C43F400527B68B4
:105210001A647B681B689B6803F44013002B39D128
:105220007B681B689B6B03F44013002B06D07B68E4
:105230001B689B6803F48063002B2BD17B681B6881
:105240005B6803F48063002B24D17B681B689B6838
:1052500003F04053002B1DD17B689B69002B19D1B3
:105260007B681B685A687B681B6822F080025A6062
:105270007B681B6C23F480527B681A647B681B6C10
:1052800003F48073002B05D17B681B6C43F0010293
:105290007B681A64786800F0BBFA7B681B686FF063
:1052A0000C021A60FB6803F001037B61BB6803F02A
:1052B00040033B617B69002B17D03B69002B14D066
:1052C0007B681B681B6803F00103012B0DD17B6811
:1052D0001B6C43F480327B681A64786800F034F801
:1052E0007B681B686FF001021A60FB6803F0200303
:1052F0007B61BB6803F080633B617B69002B15D049
:105300003B69002B12D07B685B6C43F002027B6828
:105310005A647B681B686FF020021A60786800F09E
:105320001DF87B681B686FF020021A6000BF1837F9
:10533000BD4680BD80B483B000AF786000BF0C373D
:10534000BD465DF8047B704780B483B000AF7860E1
:1053500000BF0C37BD465DF8047B704780B483B056
:1053600000AF786000BF0C37BD465DF8047B704726
:1053700080B485B000AF786039600023FB607B6843
:1053800093F83C30012B01D1022336E17B680122E6
:1053900083F83C203B681B68092B3AD93B681B68A3
:1053A000B3F1004F35D07B681B68D9683B681B6838
:1053B0009BB21A4613465B0013441E3B072202FAB7
:1053C00003F3DA437B681B680A40DA603B681B68BA
:1053D0008D4A93420AD17B681B68D9683B689B68F9
:1053E0001A067B681B680A43DA6035E07B681B6835
:1053F000D9683B689A683B681B689BB218460346AD
:105400005B0003441E3B9A407B681B680A43DA60DA
:1054100022E07B681B6819693B681B689BB21A46CF
:1054200013465B001344072202FA03F3DA437B6856
:105430001B680A401A617B681B6819693B689A6897
:105440003B681B689BB2184603465B0003449A40C6
:105450007B681B680A431A613B685B68062B24D88B
:105460007B681B68596B3B685A6813469B00134462
:10547000053B1F2202FA03F3DA437B681B680A40EC
:105480005A637B681B68596B3B681B689BB2184664
:105490003B685A6813469B001344053B00FA03F22D
:1054A0007B681B680A435A634CE03B685B680C2BC3
:1054B00024D87B681B68196B3B685A6813469B00AD
:1054C0001344233B1F2202FA03F3DA437B681B6871
:1054D0000A401A637B681B68196B3B681B689BB2A8
:1054E00018463B685A6813469B001344233B00FA56
:1054F00003F27B681B680A431A6323E07B681B681E
:10550000D96A3B685A6813469B001344413B1F22EB
:1055100002FA03F3DA437B681B680A40DA627B68AD
:105520001B68D96A3B681B689BB218463B685A687F
:1055300013469B001344413B00FA03F27B681B684F
:105540000A43DA627B681B68304A93420AD13B689F
:105550001B68B3F1004F05D12D4B5B682C4A23F437
:10556000400353607B681B68284A93420FD13B6815
:105570001B68122B0BD1264B5B68254A23F40003D2
:105580005360234B5B68224A43F4800353607B687B
:105590001B681E4A93422BD13B681B681A4A9342F0
:1055A00003D03B681B68112B22D1194B5B68184A4A
:1055B00023F480035360164B5B68154A43F40003E1
:1055C00053603B681B68104A934211D1114B1B6812
:1055D000114AA2FB03239A0C13469B0013445B0061
:1055E000FB6002E0FB68013BFB60FB68002BF9D12C
:1055F0007B68002283F83C20002318461437BD4600
:105600005DF8047B704700BF1200001000200140CD
:1056100000230140D000002083DE1B4380B483B010
:1056200000AF7860784B5B68774A23F4403353606F
:10563000754B5A687B685B68734913434B607B68A2
:105640001B685A687B681B6822F480725A607B680A
:105650001B6859687B681B691A027B681B680A43D0
:105660005A607B681B685A687B681B6822F040722E
:105670005A607B681B6859687B689A687B681B68FE
:105680000A435A607B681B689A687B681B6822F42F
:1056900000629A607B681B6899687B68DA687B683F
:1056A0001B680A439A607B689B6A584A934222D0DF
:1056B0007B681B689A687B681B6822F070629A603E
:1056C0007B681B6899687B689A6A7B681B680A43D9
:1056D0009A607B681B689A687B681B6822F040525E
:1056E0009A607B681B6899687B68DA6A7B681B68CC
:1056F0000A439A600FE07B681B689A687B681B68A6
:1057000022F070629A607B681B689A687B681B68ED
:1057100022F040529A607B681B689A687B681B681D
:1057200022F002029A607B681B6899687B689B691B
:105730005A007B681B680A439A607B6893F82030A4
:10574000002B1BD07B681B685A687B681B6842F47F
:1057500000625A607B681B685A687B681B6822F489
:1057600060425A607B681B6859687B685B6A013BD2
:105770005A037B681B680A435A6007E07B681B6812
:105780005A687B681B6822F400625A607B681B6859
:10579000DA6A7B681B6822F47002DA627B681B6835
:1057A000D96A7B68DB69013B1A057B681B680A4381
:1057B000DA627B681B689A687B681B6822F4007257
:1057C0009A607B681B6899687B6893F830305A024E
:1057D0007B681B680A439A607B681B689A687B68D1
:1057E0001B6822F480629A607B681B6899687B68FA
:1057F0005B699A027B681B680A439A6000BF0C379A
:10580000BD465DF8047B7047002301400100000F96
:1058100080B483B000AF786000BF0C37BD465DF840
:10582000047B704780B584B000AF78607B68002B44
:1058300001D10123EDE07B6893F82030DBB2002B2F
:1058400002D17868FBF7F2FC7B681B681A687B68FA
:105850001B6842F001021A60FFF7E8FBF86012E0F3
:10586000FFF7E4FB0246FB68D31A0A2B0BD97B68CF
:105870005B6A43F400327B685A627B68052283F8D6
:1058800020200123C5E07B681B685B6803F00103EF
:10589000002BE5D07B681B681A687B681B6822F0C8
:1058A00002021A60FFF7C2FBF86012E0FFF7BEFBCE
:1058B0000246FB68D31A0A2B0BD97B685B6A43F458
:1058C00000327B685A627B68052283F8202001231E
:1058D0009FE07B681B685B6803F00203002BE5D147
:1058E0007B681B7E012B08D17B681B681A687B686C
:1058F0001B6842F080021A6007E07B681B681A6828
:105900007B681B6822F080021A607B685B7E012B3B
:1059100008D17B681B681A687B681B6842F04002EC
:105920001A6007E07B681B681A687B681B6822F0B6
:1059300040021A607B689B7E012B08D17B681B6844
:105940001A687B681B6842F020021A6007E07B68D7
:105950001B681A687B681B6822F020021A607B684B
:10596000DB7E012B08D17B681B681A687B681B688B
:1059700022F010021A6007E07B681B681A687B68D7
:105980001B6842F010021A607B681B7F012B08D154
:105990007B681B681A687B681B6842F008021A6003
:1059A00007E07B681B681A687B681B6822F00802A6
:1059B0001A607B685B7F012B08D17B681B681A68C3
:1059C0007B681B6842F004021A6007E07B681B6872
:1059D0001A687B681B6822F004021A607B689A6868
:1059E0007B68DB681A437B681B691A437B685B69C9
:1059F00042EA03017B685B685A1E7B681B680A43A6
:105A0000DA617B6800225A627B68012283F82020D9
:105A1000002318461037BD4680BD000080B487B013
:105A200000AF786039607B681B687B617B6893F8A6
:105A30002030FB74FB7C012B03D0FB7C022B40F05D
:105A4000BE80654B7B617B69D3F8003243F0010275
:105A50007B69C3F800227B69D3F8003223F47C52BF
:105A60007B69C3F800227B69D3F800223B685B6A3C
:105A70001B021A437B69C3F800223B685B6903F091
:105A80001F03012202FA03F3FB607B69D3F81C2297
:105A9000FB68DB431A407B69C3F81C223B68DB6967
:105AA000002B23D17B69D3F80C22FB68DB431A401F
:105AB0007B69C3F80C223B68DB6819043B685B68B0
:105AC0009BB23A68526919437B69483243F83210F5
:105AD0003B689B6819043B681B689AB23B685B692A
